:100000000C942A000C9447000C9447000C94470071
:100010000C9447000C9447000C9447000C94470044
:100020000C9447000C9447000C9447000C94470034
:100030000C9447000C9447000C9447000C94470024
:100040000C9447000C9447000C9447000C94470014
:100050000C94470011241FBECFE5D4E0DEBFCDBF16
:1000600010E0A0E6B0E0E6E5F2E002C005900D92F7
:10007000A037B107D9F710E0A0E7B0E001C01D92AA
:10008000A137B107E1F70E941A010C9429010C94E1
:100090000000DF93CF9300D000D000D0CDB7DEB703
:1000A0009E838D831C821B8212C01A82198205C016
:1000B00089819A8101969A83898389819A818E3177
:1000C0009105B0F38B819C8101969C838B832B815E
:1000D0003C818D819E812817390738F326960FB60B
:1000E000F894DEBF0FBECDBFCF91DF910895DF93AF
:1000F000CF93CDB7DEB7E7E3F0E08FEF8083E4E3A3
:10010000F0E08FEF8083E1E3F0E01082E2E3F0E0E3
:100110008FEF8083CF91DF910895DF93CF9300D04D
:10012000CDB7DEB7E1E3F0E083E08083E2E3F0E027
:100130008CE08083E0E3F0E08081882F90E08C7099
:1001400090708C30910599F184E190E00E94490013
:10015000E0E3F0E08081882F90E08C7090708C302C
:10016000910529F1E0E3F0E080818C708A83E1E37E
:10017000F0E08CE08083E2E3F0E083E0808385E0E0
:1001800090E00E944900E0E3F0E080818370898381
:100190009A818981892B80937000E0E3F0E080816F
:1001A000882F90E08370907083309105B1F70F90A5
:1001B0000F90CF91DF910895DF93CF9300D0CDB70B
:1001C000DEB780917000282F30E03A83298389813F
:1001D0009A8186309105B1F029813A812730310525
:1001E00034F489819A8185309105B1F01EC029814E
:1001F0003A8129303105A9F089819A818A309105A7
:1002000031F013C0E8E3F0E08EEF80830EC0E8E346
:10021000F0E08DEF808309C0E8E3F0E08BEF8083AE
:1002200004C0E8E3F0E087EF80830F900F90CF9158
:10023000DF910895DF93CF93CDB7DEB70E947700AB
:10024000E8E3F0E08FEF80830E948D000E94DC00E5
:06025000FBCFF894FFCF84
:100256003F065B4F666D7D077F6F777C395E7971F0
:00000001FF
