:040000000C94490013
:100004000C9400000C9400000C9400000C9400006C
:100014000C9400000C9400000C9400000C9400005C
:100024000C9400000C9400000C9400000C9400004C
:100034000C9400000C9400000C9400000C9400003C
:100044000C9400000C9400000C94C5000C94000067
:100054003F065B4F666D7D077F6FC3C3A3930000AC
:100064007FBFDFEFF7FBFDFE3F065B4F666D7D074D
:100074007F6F777C395E79710000010002006200B5
:10008400080060016400020004007C000000F89491
:10009400EE27ECBBF1E0FBBFEBBFE5BFF8E1F1BD40
:1000A400E1BD8DE0A2E0BB27ED938A95E9F780E0FE
:1000B40094E0A0E6ED930197E9F7EEE7F0E085918F
:1000C4009591009761F0A591B59105901590BF01A8
:1000D400F00105900D920197E1F7FB01F0CFEFE5F8
:1000E400EDBFE4E0EEBFC0E6D1E00C946B010E94EA
:1000F400080200E010E0EC81FD810E171F0760F498
:1001040020E030E02E31E0E03E0718F42F5F3F4F4F
:10011400F9CF0F5F1F4FEFCF0E940D02269608956F
:10012400EFEFE7BB8F9AE4BBE0EFE1BBEFE0E2BBAC
:10013400E0E0E5BBEFEFE4BBE0E0EBBBE0E4EABB0F
:10014400EFEFE8BBE7BB0895DE98E3E0E2BBE72D01
:100154000BD1E0810DD105BA20FE03C0E2E0E71522
:1001640009F001C0AF9A772011F4DE9A06C0E72D9A
:10017400F0E0E25AFF4F049002BA7394E4E07E1672
:1001840008F0772408950A921A92FA926A937A935D
:100194008A939A93AA93BA93EA93FA93EFB7EA935A
:1001A400D3DFF40131964F01E43FA1E0FA0720F0D8
:1001B40088249924689421F8E991EFBFF991E99191
:1001C400B991A9919991899179916991F99019902D
:1001D400099018951A930A9300E010E0123090F4F5
:1001E400E02F0F5FC1D0C9D00E94EC01DB01EC937A
:1001F400E02F0F5FB9D0C1D00E94E701DB01EC937F
:100204001F5FECCF37C01A930A93E3E0E1BBECE045
:10021400E2BBE0B3EC70EC3069F1E4E1F0E0B7D0BC
:1002240049F1E0B3EC701E2FECE0E1BBE0E9F1E052
:10023400AED009F0DD24AB2DBB27E8E0F0E00E944E
:10024400EC01BE2EB394AA2DBB27EAE0F0E00E9495
:10025400EC01AE2EA394E5E0F0E0FA93EA9347DFD5
:10026400E0B3E3700E2FE02FE12B6E2EE0B3E370CA
:10027400E330E1F7099119910895E62DF0E0E630B5
:10028400A0E0FA0729F4EFEFE8BBE89421F820C0D6
:10029400EA30A0E0FA0759F4EA2D6AD008BAE894E3
:1002A40021F8E0E0E0936901E093680111C0E530D2
:1002B400A0E0FA0719F4689421F80AC0E930A0E034
:1002C400FA0731F4EB2DF0E0E05AFE4FE081E8BB91
:1002D400089526DFEFEFE8BBEBE0E3BFE0E0E2BF29
:1002E400ECE7ECBFE2E0E9BF78948DDFC6DF2CDFFA
:1002F4002BDF2ADF88DFC1DF21FE34C0E89421F838
:10030400E1E02E26E1E0F0E04E165F0694F0A091C5
:100314006801AF3158F4BB27E2E0F0E00E94EC0141
:10032400309721F4E0E0E8BB979A03C0EFEFE8BB15
:100334009798A0916801AF5FA0936801AC3388F0EF
:10034400E0E0E0936801F20131962F013197E091EA
:100354006901EF5FE0936901EC3318F0E0E0E093AA
:10036400690138DFC2CFFFCFF0E0E659FE4F0895B0
:10037400F0E0EC5AFF4F04900895BF01E12FF0E044
:10038400E859FE4FA081B0E0EAE0F0E00895FA9366
:10039400EA93ADDEE0B3EC70EC300895F195E195AD
:1003A400F04008950024112490E1AA0FBB1F001C03
:1003B400111C0E1A1F0A18F40E0E1F1E01C0A16094
:1003C4009A9599F7FD01D001089512D0EBDF0EF450
:1003D400E5DF0895E894B7FF04C0A095B0951196A1
:1003E4006894F7FDDBDFDEDFFD010EF4D7DF08954F
:1003F400E894F7FF02C0D2DF6894B7FF06C0A09567
:10040400B095119600F8039400FA08953A932A934C
:100414001A930A9308953B812A81198108810895CA
:00000001FF
